:0400000079EF00F0A4
:10000800FACF04F0FBCF05F0E9CF06F0EACF07F00E
:10001800E1CF08F0E2CF09F0D9CF0AF0DACF0BF040
:10002800F3CF0CF0F4CF0DF0F6CF0EF0F7CF0FF0C2
:10003800F8CF10F0F5CF11F09EA601D001D038D03E
:10004800454A462A8182C9CF47F0000EC96E15D0AD
:1000580000D0C7A001D001D0FCD700D00001600EAD
:100068004324D96E0001000E4420DA6EC9CFDFFFA9
:10007800000EC96E434A442A00D04750016E026AF6
:100088004450800A036E0150435C0250800A0358B2
:10009800D8A001D001D0DDD700D0000E446E000EEC
:1000A800436E016E010E426E015081929E9600D001
:1000B80011C0F5FF10C0F8FF0FC0F7FF0EC0F6FF24
:1000C8000DC0F4FF0CC0F3FF0BC0DAFF0AC0D9FF64
:1000D80009C0E2FF08C0E1FF07C0EAFF06C0E9FF68
:0E00E80005C0FBFF04C0FAFF110063EF0DF02E
:1010000001000A006400E80310270100100000013D
:101010000010307825582C25582C25582C25582C74
:101020002558202020202020200030313233343534
:1010300036373839414243444546006E427974653B
:10104000733D256420543D25642020000000000EDF
:1010500000010001C86F240E0001C76F99D1000183
:101060000001D051250AD8B401D001D00AD020C047
:10107000D9FF21C0DAFF0001D0C0DFFF204A212ABA
:1010800087D12E6E000E00010001CA6F2E500AD0CB
:1010900096D12AD029D000D000010001CA8F24D0D7
:1010A00077D122D022502E6E23502F6E224A232A2F
:1010B0002EC0F6FF2FC0F7FF000EF86E08000001EB
:1010C000F5CFD0F00001D051000AD8B478D1580A39
:1010D000D8B4E2D73C0AD8B407D00D0AD8B404D0AB
:1010E000110AD8B4D9D754D100010001CABF01D028
:1010F00001D024D0C7C0D9FFC8C0DAFF0001DECFBD
:10110000CBF00001DDCFCCF0020E00010001C727BB
:10111000000E0001C82300010001CCAF01D001D0B6
:101120009DD0030E00010001CA1300010001CB6D28
:101130000001CC1FD8B0CC2B91D090D0C7C0D9FF24
:10114000C8C0DAFF0001DECFCBF00001DDCFCCF06C
:10115000020E00010001C727000E0001C8237ED047
:101160007DD02E6E010E00010001D06F2E500001C7
:101170000001D051050AD8A401D001D002D079D005
:1011800078D000010001D051020D000EF324F66E5C
:10119000100EF420F76EF86A000EF8220900F5CF61
:1011A0002EF00900F5CF2FF02E5000010001CB5D8D
:1011B0002F5000010001CC59D8B001D001D002D08D
:1011C00058D057D000010001D02B00010001D051B0
:1011D000050AD8A401D001D0D4D74BD04AD02E6E66
:1011E000010E00010001D06F2E5000010001D0510E
:1011F000040AD8A401D001D002D03BD03AD00001DB
:101200000001D051020D0A0EF324F66E100EF420E8
:10121000F76EF86A000EF8220900F5CF2EF00900EB
:10122000F5CF2FF02E5000010001CB5D2F500001B3
:101230000001CC59D8B001D001D002D01AD019D0B9
:1012400000010001D02B00010001D051040AD8A4F4
:1012500001D001D0D4D70DD00CD00BD000010001AB
:10126000CA51800B000AD8B47CD7800AD8B4B7D74B
:1012700000D000010001CA51030BD8B401D001D045
:1012800009D020C0D9FF21C0DAFF2D0EDF6E204A21
:10129000212A00D0D0C0C9F070D05AD0000100017E
:1012A000C951020D000EF324F66E100EF420F76EF5
:1012B000F86A000EF8220900F5CF14F00A00F5CF05
:1012C00015F0CBC012F0CCC013F0CDEC0CF012C076
:1012D0001AF013C01BF0000E1D6E0A0E1C6E35ECCA
:1012E0000DF01A50300F00010001D06F3CD0CBC080
:1012F00012F0CCC013F000010001C951020D0A0E1A
:10130000F324F66E100EF420F76EF86A000EF82241
:101310000900F5CF14F00A00F5CF15F0CDEC0CF074
:1013200012500F0B00010001C66F00010001C651F1
:10133000010D2A0EF324F66E100EF420F76EF86AF3
:10134000000EF82208000001F5CFD0F00CD00BD031
:1013500000010001CA51800B000AD8B49FD7800A4F
:10136000D8B4C5D700D020C0D9FF21C0DAFF000112
:10137000D0C0DFFF204A212A00D000010001C907A8
:101380000001C929D8A401D001D0E2D701D000D0F2
:1013900022502E6E23502F6E224A232A2EC0F6FF93
:1013A0002FC0F7FF000EF86E08000001F5CFD0F057
:1013B0000001D06701D001D052D601D000D020C0AA
:1013C000D9FF21C0DAFF000EDF6E00D0120020EE40
:1013D00033F010EE23F0060EDECFE6FFE82EFCD74A
:1013E000216E000E226E2150216E280E256E215096
:1013F000216E0F0E266E2150216E060E276E215093
:10140000839483964E0E136E200E126E7DEC0BF0BD
:101410003CD023C021F0D8902132D8902132D890EE
:10142000213221322132835021187F0B2118836E03
:1014300023C021F0D8902132D8902132213A214680
:10144000214683502118BF0B2118836E23C021F041
:10145000D8902132213A214683502118DF0B2118E0
:10146000836E23B002D0839801D083888386000ED8
:10147000136E020E126E7DEC0BF08396130E136E3C
:10148000880E126E7DEC0BF0222A020E226401D02F
:1014900001D0BFD700D024C021F0D8902132D890FD
:1014A0002132D890213221322132835021187F0BF2
:1014B0002118836E24C021F0D8902132D890213297
:1014C000213A2146214683502118BF0B2118836EF3
:1014D00024C021F0D8902132213A2146835021188E
:1014E000DF0B2118836E24B002D0839801D083884B
:1014F0008386000E136E020E126E7DEC0BF0839647
:10150000000E136E280E126E7DEC0BF025C014F049
:10151000216E000E156E2150000E176E280E166EED
:10152000FFEC0BF026C014F0216E000E156E21505A
:10153000000E176E280E166EFFEC0BF027C014F08D
:10154000216E000E156E2150000E176E280E166EBD
:10155000FFEC0BF0B9EC0DF0216E000E1A6E21506D
:1015600081EC0DF01200D388D38AD38CC290C18055
:10157000C182C184C186B480B482B484000E926EEC
:10158000000E936E180E946E000E956E000E966E01
:10159000000E976E000E986E000E996E000E9A6EF9
:1015A000000E806E000E816E000E826E000E836E45
:1015B000000E846E000E856E000E866E000E876E25
:1015C0008868F29EF29CE7EC09F0C69A306E040E31
:1015D000126E3050316E000E136E3150326E000EAE
:1015E000146E325003EC0DF09F869E969D960DD0A2
:1015F0000001600E4324D96E0001000E4420DA6E13
:10160000000EDF6E434A442A00D04450800A800F07
:10161000400ED8B4435CD8A001D001D0E9D700D0A7
:10162000000E446E000E436E4250D8B401D001D07B
:10163000FBD70001000E216E0001B50E206E100ECA
:10164000236E3B0E226E47C024F0256A45C026F06B
:1016500046C027F027EC08F0306E010E1D6E3050AA
:10166000316E010E1E6E31500001000E206E000121
:10167000B50E1F6E326E100E216E32509FEC0DF0C3
:101680000001000E216E0001B50E206E100E236EBB
:10169000120E226E000160C024F0256A000161C0B4
:1016A00026F0276A000162C028F0296A000163C0A1
:1016B0002AF02B6A000164C02CF02D6A27EC08F098
:1016C000306E020E1D6E3050316E010E1E6E3150A6
:1016D0000001000E206E0001B50E1F6E326E100E5E
:1016E000216E32509FEC0DF0306E000E426E305085
:1016F0009BD79AD799D779EF00F074D009D0030E11
:10170000E82EFED700F000F000F01206D8A0130675
:101710001350800A800F010ED8B4125CD8B001D0EB
:1017200001D0EDD75FD05ED05DD007D0030EE82E9C
:10173000FED700F01206D8A013061350800A800FBF
:10174000010ED8B4125CD8B001D001D0EFD74AD086
:1017500049D048D009D000F000F000F000F000F0CF
:101760001206D8A0130600D01350800A800F010E75
:10177000D8B4125CD8B001D001D0EDD733D032D07C
:1017800031D008D000F000F000F000F01206D8A030
:10179000130600D01350800A800F010ED8B4125CDB
:1017A000D8B001D001D0EED71DD01CD01BD007D0AF
:1017B00000F000F000F01206D8A0130600D013507D
:1017C000800A800F010ED8B4125CD8B001D001D0CD
:1017D000EFD708D007D006D000F000F01206D8A04E
:1017E000130600D01350800A800F010ED8B4125C8B
:1017F000D8B001D001D0F0D701D000D0120015B080
:1018000002D0839401D08384186A14AE01D0182AC0
:1018100018321832835018187F0B1818836E14C0B2
:1018200018F0060E196ED8901832192EFCD7183AF7
:101830001846184683501818BF0B1818836E14C02A
:1018400018F0050E196ED8901832192EFCD7183AD8
:10185000184683501818DF0B1818836E14C018F040
:10186000183A0F0E1816183A83501818EF0B18185C
:10187000836E8386000E136E020E126E7DEC0BF0EB
:10188000839614C018F0D8901832D8901832D89097
:10189000183218321832835018187F0B1818836EBC
:1018A00014C018F0D8901832D8901832183A184648
:1018B000184683501818BF0B1818836E14C018F000
:1018C000D8901832183A184683501818DF0B181899
:1018D000836E14B002D0839801D083888386000E73
:1018E000136E020E126E7DEC0BF0839616C012F092
:1018F00017C013F07DEC0BF012001A04D8A401D02D
:1019000001D00ED01B507F0F146E1C6E000E156E92
:101910001C50000E176E280E166EFFEC0BF000D058
:101920001A50020AD8A401D001D00ED01B50BF0F0C
:10193000146E1C6E000E156E1C50000E176E280ED5
:10194000166EFFEC0BF000D01A50030AD8A401D099
:1019500001D00ED01B50930F146E1C6E000E156E2E
:101960001C50000E176E280E166EFFEC0BF000D008
:101970001A50040AD8A401D001D00ED01B50D30FA6
:10198000146E1C6E000E156E1C50000E176E280E85
:10199000166EFFEC0BF000D01200000E196E000E58
:1019A000186E15501410D8B401D001D027D0166E7F
:1019B000010E176E165005D0D89014361536172A1A
:1019C00000D015AE01D001D0F7D701D000D0D8900B
:1019D000183619361450125C15501358D8A001D07F
:1019E00001D006D01450125E1550135A188000D042
:1019F000D89015321432172EEAD700D018C012F042
:101A000019C013F012003F0EC716000EC66E12501A
:101A1000C6121450C71209D0C78C1BD0C78CC688F9
:101A200018D0C68816D015D014D01350000AD8B4D8
:101A3000F3D7020AD8B4F2D7010AD8B4F2D709D042
:101A400008D0978E94860DD094860BD0949609D0AA
:101A500008D01250040AD8B4F4D7010AD8B4F4D785
:101A6000F5D79488949AC68A12001D501C10D8B4D9
:101A700001D001D023D01E6E010E1F6E1E5005D066
:101A8000D8901C361D361F2A00D01DAE01D001D0C3
:101A9000F7D701D000D01C501A5C1D501B58D8A09D
:101AA00001D001D005D01C501A5E1D501B5A00D029
:101AB000D8901D321C321F2EEED700D01AC01AF05B
:101AC0001BC01BF0120000EE60F0660EEE6AE80626
:101AD000FDE1476A466A456A446A436AAA0EF66EA1
:101AE0001B0EF76E000EF86E00EE33F010EE10F0E5
:101AF0000900F5CFEEFFE550E150FAE10001B3EF48
:101B00000AF020EE39F010EE1CF0050EDECFE6FFF5
:101B1000E82EFCD71A50010D1C0EF324D96E000ECE
:101B2000F420DA6EDF50146E1B6E000E156E1B5023
:101B3000000E176E280E166EFFEC0BF012001DC083
:101B40001AF01EC01BF07DEC0CF00BD01FC0D9FFAB
:101B500020C0DAFFDF501A6EC8EC0DF01F4A202AB1
:101B600000D021062128D8A401D001D0EFD700D081
:101B700012001A6E010E146E1A501B6E000E156EB6
:101B80001B50070E176ED00E166EFFEC0BF01200F6
:101B90001AC014F01B6E010E156E1B50000E176E4E
:101BA0002D0E166EFFEC0BF0120003020000000079
:0A1BB0000C080F0E0D14101C180194
:020000040020DA
:08000000FFFFFFFFFFFFFFFF00
:020000040030CA
:0E000000FF08191EF38381FFFFC0FFE0FF40E1
:00000001FF
