:04000000F7EF00F026
:10000800FACF0AF0FBCF0BF0E9CF0CF0EACF0DF0F6
:10001800E1CF0EF0E2CF0FF0D9CF10F0DACF11F028
:10002800F3CF12F0F4CF13F0F6CF14F0F7CF15F0AA
:10003800F8CF16F0F5CF17F09EA601D001D0B6D0B4
:1000480000010001B34BB42B8182C9CF1CF0000E14
:10005800C96E000E226E000E216E13D000D0C7A00C
:1000680001D001D0FCD700D0230E2124D96E000E78
:100078002220DA6EC9CFDFFF000EC96E214A222A7C
:1000880000D01C50076E086A2250800A096E07507B
:10009800215C0850800A0958D8A001D001D0DFD7C8
:1000A80000D0000E226E000E216E23C007F0060E4F
:1000B800086ED8900732082EFCD7030E0716075093
:1000C800186E196A23C007F0073A0F0E0716030EB9
:1000D800071607501D6E1E6A23C007F0D890073216
:1000E800D8900732030E071607501F6E206A1FC0EC
:1000F80003F020C004F01DC001F01EC002F050EC57
:100108000EF001C01AF002C01BF018C001F019C0AF
:1001180002F0010E046EC00E036E50EC0EF0C60E17
:100128000124076E000E0220086E1AC001F01BC0E1
:1001380002F0000E046E070E036E50EC0EF0015034
:100148000724256E02500820266E25C0D9FF26C038
:10015800DAFF1DC0DEFF1EC0DDFF20EE02F02550D5
:10016800D9262650DA221FC0DEFF20C0DDFF23502B
:10017800030B076E086A20EE04F02550D926265096
:10018800DA2207C0DEFF08C0DDFF20EE06F02550AA
:10019800D9262650DA2224C0DFFF076E010E00019F
:1001A8000001B26F075081929E9600D017C0F5FFEC
:1001B80016C0F8FF15C0F7FF14C0F6FF13C0F4FF10
:1001C80012C0F3FF11C0DAFF10C0D9FF0FC0E2FF61
:1001D8000EC0E1FF0DC0EAFF0CC0E9FF0BC0FBFF3A
:0A01E8000AC0FAFF1100ACEF0DF0A1
:1010000001000A006400E8031027543D25642020F5
:101010000000D388D38AD38CC290C180C182C1849E
:10102000C186B480B482B484000E926E000E936EBA
:10103000180E946E000E956E000E966E000E976E52
:10104000000E986E000E996E000E9A6E000E806E65
:10105000000E816E000E826E000E836E000E846E96
:10106000000E856E000E866E000E876E8868F28E0A
:10107000F28CD4EC0AF0C69A0001766F040E276E4B
:10108000000176510001776F000E286E0001775144
:101090000001786F000E296E00017851DFEC0DF031
:1010A0009E969D8600D000010001B251D8B401D0B7
:1010B00001D044D00001000E00010001656F000165
:1010C000B50E0001646F100E00010001676F0A0E7B
:1010D0000001666FB3C068F0B4C069F00001A0EC15
:1010E00009F00001766F010E00010001616F00013F
:1010F00076510001776F010E00010001626F00015F
:1011000077510001000E00010001646F0001B50E6F
:101110000001636F0001786F100E00010001656F20
:1011200000017851000131EC0EF00001766F000EE5
:1011300000010001B26F0001765100D020EE98F05E
:1011400010EE7CF0100EDECFE6FFE82EFCD7AEC02E
:101150008CF0AFC08DF0B0C08EF0B1C08FF0000E3B
:1011600000010001936F000E0001926F040E000158
:101170000001925D000E00019359D8A001D001D06A
:1011800002D091D790D7000E00010001956F000E9C
:101190000001946F040E00010001945D000E000137
:1011A0009559D8A001D001D002D0B6D0B5D0000E4C
:1011B00000010001976F000E0001966F040E000100
:1011C0000001965D000E00019759D8A001D001D012
:1011D00002D092D091D000018C0E00010001922526
:1011E000D96E0001000E000100019321DA6EDF507C
:1011F0000001766F000196C077F0000197C078F08B
:101200000001D890773778370001D8907737783752
:1012100000017C0E000177250001796F0001000EAE
:101220000001782100017A6F000100019451000152
:101230007925D96E00010001955100017A21DA6EFD
:10124000DF5000017B6F00017B510001762500011A
:101250000001906F0001916B0001913790C076F012
:10126000070E00017617010E0001776F0001762B43
:1012700003D00001D89077370001762FFAD700010C
:101280007751FF0A876E000190C076F0000191C08F
:1012900077F00001D890773376330001D890773318
:1012A00076330001D89077337633010E0001786FE2
:1012B0000001762B03D00001D89078370001762FFB
:1012C000FAD700017851886E0001766F140E276EF0
:1012D0000001765199EC0EF000010001964B972B1E
:1012E000040E00010001965D000E00019759D8A080
:1012F00001D001D070D700D000010001944B952B94
:10130000040E00010001945D000E00019559D8A063
:1013100001D001D04CD700D000010001924B932B9B
:10132000040E00010001925D000E00019359D8A047
:1013300001D001D028D7B7D6B6D6B5D6F7EF00F092
:101340000001000E000100016D6F0001680E000138
:101350006C6F04D1000100017551250AD8B401D089
:1013600001D00CD064C0D9FF65C0DAFF000175C0A0
:10137000DFFF00010001644B652BF0D000016A6FB4
:10138000000E000100016E6F00016A5105D004D10A
:1013900026D025D0E3D023D0000100016651000102
:1013A0006A6F00010001675100016B6F0001664B1D
:1013B000672B6AC0F6FF6BC0F7FF000EF86E0800DF
:1013C0000001F5CF75F000017551000AD8B4E4D0E2
:1013D000640AD8B404D00D0AD8B401D0BFD06CC010
:1013E000D9FF6DC0DAFF0001DECF70F00001DDCF64
:1013F00071F0020E000100016C27000E00016D2348
:101400000001000171AF01D001D00CD0030E00012A
:1014100000016E1300010001706D0001711FD8B052
:10142000712B00D000016A6F010E00010001756F81
:1014300000016A51000100017551050AD8A401D0CC
:1014400001D002D030D02FD0000100017551020D23
:10145000000EF324F66E100EF420F76EF86A000EFC
:10146000F8220900F5CF6AF00900F5CF6BF0000112
:101470006A5100010001705D00016B510001000123
:101480007159D8B001D001D002D00DD00CD00001DC
:101490000001752B000100017551050AD8A401D087
:1014A00001D0D2D700D0000100016E51030BD8B497
:1014B00001D001D00BD064C0D9FF65C0DAFF2D0E7A
:1014C000DF6E00010001644B652B00D075C06FF02A
:1014D0003AD0000100016F51020D000EF324F66EA8
:1014E000100EF420F76EF86A000EF8220900F5CF0E
:1014F00029F00A00F5CF2AF070C027F071C028F05B
:1015000076EC0DF027C060F028C061F0000E0001FD
:101510000001636F0A0E0001626F00012EEC0DF0F6
:10152000000100016051300F00010001756F64C0BF
:10153000D9FF65C0DAFF000175C0DFFF00010001BF
:10154000644B652B00D0000100016F0700016F297B
:10155000D8A401D001D0BDD701D000D00001000136
:10156000665100016A6F00010001675100016B6F55
:101570000001664B672B6AC0F6FF6BC0F7FF000ED9
:10158000F86E08000001F5CF75F00001756701D015
:1015900001D0E0D601D000D064C0D9FF65C0DAFF29
:1015A000000EDF6E00D0120020EEA8F010EE67F003
:1015B000060EDECFE6FFE82EFCD70001656F000EB9
:1015C00000010001666F000165510001656F280E82
:1015D00000010001696F000165510001656F0F0E88
:1015E000000100016A6F000165510001656F060E80
:1015F000000100016B6F00016551839483964E0ECC
:10160000286E200E276ED6EC0BF04BD067C065F02D
:101610000001D89065330001D89065330001D8905F
:1016200065330001653365338350000165197F0B15
:101630006519836E67C065F00001D89065330001BD
:10164000D89065330001653B654765478350651950
:10165000BF0B6519836E67C065F00001D8906533D4
:101660000001653B6547835000016519DF0B651973
:10167000836E0001000167B102D0839801D0838896
:101680008386000E286E020E276ED6EC0BF0839632
:10169000130E286E880E276ED6EC0BF000010001A9
:1016A000662B020E00010001666501D001D0AED7A5
:1016B00000D068C065F00001D89065330001D89073
:1016C00065330001D890653300016533653383507D
:1016D000000165197F0B6519836E68C065F0000114
:1016E000D89065330001D89065330001653B6547AC
:1016F000654783506519BF0B6519836E68C065F037
:101700000001D89065330001653B654783500001B7
:101710006519DF0B6519836E0001000168B102D005
:10172000839801D083888386000E286E020E276E70
:10173000D6EC0BF08396000E286E280E276ED6ECA2
:101740000BF069C029F00001656F000E2A6E0001E0
:101750006551000E2C6E280E2B6E58EC0CF06AC0F2
:1017600029F00001656F000E2A6E00016551000E20
:101770002C6E280E2B6E58EC0CF06BC029F000017B
:10178000656F000E2A6E00016551000E2C6E280E4A
:101790002B6E58EC0CF06FEC0EF00001656F000E34
:1017A0002F6E0001655111EC0EF0120074D009D0BB
:1017B000030EE82EFED700F000F000F02706D8A0B8
:1017C00028062850800A800F010ED8B4275CD8B0B4
:1017D00001D001D0EDD75FD05ED05DD007D0030E31
:1017E000E82EFED700F02706D8A028062850800A49
:1017F000800F010ED8B4275CD8B001D001D0EFD74C
:101800004AD049D048D009D000F000F000F000F0F4
:1018100000F02706D8A0280600D02850800A800FA4
:10182000010ED8B4275CD8B001D001D0EDD733D0A9
:1018300032D031D008D000F000F000F000F02706E0
:10184000D8A0280600D02850800A800F010ED8B4F6
:10185000275CD8B001D001D0EED71DD01CD01BD052
:1018600007D000F000F000F02706D8A0280600D02E
:101870002850800A800F010ED8B4275CD8B001D060
:1018800001D0EFD708D007D006D000F000F027062F
:10189000D8A0280600D02850800A800F010ED8B4A6
:1018A000275CD8B001D001D0F0D701D000D0120011
:1018B0002AB002D0839401D083842D6A29AE01D04E
:1018C0002D2A2D322D3283502D187F0B2D18836E2B
:1018D00029C02DF0060E2E6ED8902D322E2EFCD75C
:1018E0002D3A2D462D4683502D18BF0B2D18836E93
:1018F00029C02DF0050E2E6ED8902D322E2EFCD73D
:101900002D3A2D4683502D18DF0B2D18836E29C0DC
:101910002DF02D3A0F0E2D162D3A83502D18EF0B6A
:101920002D18836E8386000E286E020E276ED6EC6D
:101930000BF0839629C02DF0D8902D32D8902D32FF
:10194000D8902D322D322D3283502D187F0B2D182B
:10195000836E29C02DF0D8902D32D8902D322D3A9B
:101960002D462D4683502D18BF0B2D18836E29C090
:101970002DF0D8902D322D3A2D4683502D18DF0BA7
:101980002D18836E29B002D0839801D08388838676
:10199000000E286E020E276ED6EC0BF083962BC03D
:1019A00027F02CC028F0D6EC0BF012002F04D8A49E
:1019B00001D001D010D030507F0F296E0001606F30
:1019C000000E2A6E00016051000E2C6E280E2B6E48
:1019D00058EC0CF000D02F50020AD8A401D001D04E
:1019E00010D03050BF0F296E0001606F000E2A6EBC
:1019F00000016051000E2C6E280E2B6E58EC0CF07E
:101A000000D02F50030AD8A401D001D010D03050FC
:101A1000930F296E0001606F000E2A6E0001605165
:101A2000000E2C6E280E2B6E58EC0CF000D02F50B0
:101A3000040AD8A401D001D010D03050D30F296EA1
:101A40000001606F000E2A6E00016051000E2C6EC6
:101A5000280E2B6E58EC0CF000D012000001000193
:101A600063516211D8B401D001D03BD02F6E010E6A
:101A7000306E2F5008D0000100010001D89062376D
:101A80006337302A00D00001000163AF01D001D0DC
:101A9000F2D701D000D00001000162510001000125
:101AA000605D000100016351000100016159D8A08F
:101AB00001D001D00DD000010001625100010001F0
:101AC000605F00010001635100010001615B00D013
:101AD000000100010001D89063336233302EDBD760
:101AE00000D060C060F061C061F01200000E2D6E89
:101AF000000E2C6E2A502910D8B401D001D027D066
:101B00002B6E010E2E6E2B5005D0D89029362A361A
:101B10002E2A00D02AAE01D001D0F7D701D000D0B4
:101B2000D8902C362D362950275C2A502858D8A01A
:101B300001D001D006D02950275E2A50285A2C8087
:101B400000D0D8902A3229322E2EEAD700D02CC0CD
:101B500027F02DC028F0120000EEC6F017EE00F0BE
:101B6000EE6AE550E150FCE1E250FAE100EEB3F03C
:101B7000130EEE6AE806FDE1FC0EF66E1C0EF76E23
:101B8000000EF86E00EE98F010EE1BF00900F5CF95
:101B9000EEFFE550E150FAE14A0EF66E1D0EF76ECB
:101BA000000EF86E00EE31F010EE09F00900F5CFEE
:101BB000EEFFE550E150FAE1000109EF08F03F0EB9
:101BC000C716000EC66E2750C6122950C71209D07C
:101BD000C78C1BD0C78CC68818D0C68816D015D025
:101BE00014D02850000AD8B4F3D7020AD8B4F2D7D8
:101BF000010AD8B4F2D709D008D0978E94860DD0B8
:101C000094860BD0949609D008D02750040AD8B4F3
:101C1000F4D7010AD8B4F4D7F5D79488949AC68A31
:101C2000120020EE31F010EE60F0050EDECFE6FF80
:101C3000E82EFCD72F50010D0001600EF324D96E61
:101C40000001000EF420DA6EDF50296E306E000EB7
:101C50002A6E3050000E2C6E280E2B6E58EC0CF0B5
:101C6000120061C02FF062C030F0D6EC0CF00DD045
:101C700063C0D9FF64C0DAFFDF502F6E8CEC0EF02A
:101C800000010001634B642B00D0000100016507D7
:101C900000016529D8A401D001D0EAD700D01200F4
:101CA000000E066E000E056E00D001A001D001D01E
:101CB00005D0035005260450062200D0D8900336E4
:101CC0000436D8900232013202500110D8A401D05B
:101CD00001D0EBD705C001F006C002F012002F6E54
:101CE000010E296E2F50306E000E2A6E3050070EF6
:101CF0002C6ED00E2B6E58EC0CF012000020082831
:101D000002220A2A1030183812321A3A030200004E
:101D100000000001040501002FC029F0306E010E03
:101D20002A6E3050000E2C6E2D0E2B6E58EC0CF0DF
:101D300012000D0E286EFB0EE82EFED7282EFCD7C3
:101D400000D0272EF6D700D012000C080F0E0D146D
:041D5000101C18004B
:020000040020DA
:08000000FFFFFFFFFFFFFFFF00
:020000040030CA
:0E000000FF08191EF38381FFFFC0FFE0FF40E1
:00000001FF
