:020000040000FA
:06000000F5EF0BF0120009
:020006000000F8
:0800080040EC05F0FB0EDBCF1C
:10001000F3FFDB06F35000090AE08EEC05F0FA0E60
:10002000F9EC05F0F3E1151CF1E1010E01D0000E31
:100030006FEF05F040EC05F03B0EE12402E3E168D0
:10004000E652E16E010EDB6A020EDB6AF90EDBCFCF
:10005000F6FFFA0EDBCFF7FFFB0EDBCFF8FF080051
:10006000F550DF6EDF5002E193EF04F0250EDF5C08
:1000700002E086EF04F0030EDB6A040EDB6A050E75
:10008000DB6A060EDB6A070EDB6AA8EC04F02D0EB5
:10009000DF5C0CE02B0EDF5C09E0200EDF5C06E08D
:1000A000230EDF5C03E0300EDF5C1AE1DF50300A24
:1000B00014E0130A0FE0030A0AE00B0A05E0060A3F
:1000C000E4E1030EDB80E1D7030EDB82DED7030E13
:1000D000DB84DBD7030EDB86D8D7030EDB88D5D7CE
:1000E0002A0EDF5C1BE1A4EC04F0F2EC04F010E05B
:1000F000030EDB8008680968130EDBCF0DF0140EC9
:10010000DBCF0EF04DEC0BF0040E06C0DBFF03D08E
:10011000130EDBEC04F0A8EC04F00BD0090EDB6A44
:1001200049EC05F003E0BDEC05F0FAD7090EDBEC75
:1001300004F0030EDBB0DB982E0EDF5C1BE1A8ECB5
:1001400004F02A0EDF5C0BE1A4EC04F0F2EC04F006
:1001500003E1130E2DEC05F0A8EC04F00BD0090E12
:10016000DB6A49EC05F003E0BDEC05F0FAD7090EB7
:100170002DEC05F0680EDF5C07E1A8EC04F0680EDA
:10018000DF5C1DE1030E18D0740EDF5C17E07A0E01
:10019000DF5C14E0480EDF5C06E0540EDF5C03E039
:1001A0005A0EDF5C02E1020E07D06C0EDF5C03E04A
:1001B0006A0EDF5C04E1010E80EC05F0C9DBDF5064
:1001C0006E0A01E17FD31E0A01E192D1200A01E10A
:1001D0008FD13F0A01E149D11A0A01E146D10D0A46
:1001E00001E143D1200A01E140D13A0A01E13DD1C8
:1001F000200A01E13AD1260A01E135D10D0A01E1D7
:1002000032D11A0A01E1D9D0200A4AE0300A1FE0AF
:10021000460A0EE0250A01E083D3D950F90FE96EB2
:10022000FF0EDA20EA6E010EEE5E000EEE5AEE5A76
:100230008EEC05F0250EE66E95DB03E1151C01E161
:1002400069D38AEC05F001E26BD3DB2A69D3080E8F
:10025000DB6A040EDB50010806E2040EDB0452ECFC
:1002600005F0DB508BDB080EDB5009E0030EDB50A2
:10027000010B05E172DB01E04DD3080EDB6A64DBA4
:10028000EFCFDFFF02EC06F003E1151C01E142D3E2
:100290008AEC05F001E3DB2A60DB01E141D33AD3CC
:1002A000070EDB5002080FE1CEEC05F0030E95ECD3
:1002B00005F00E0EEECFDBFF0F0EEECFDBFF100EC4
:1002C000EECFDBFF20D0F70EDBCF17F0F80EDBCF41
:1002D00018F0020E175E000E185AF70E17C0DBFF5B
:1002E000F80E18C0DBFF17C0E9FF18C0EAFF85EC65
:1002F00005F0166A0E0E14C0DBFF0F0E15C0DBFFF3
:10030000100E16C0DBFF0E0EDBCFE6FF0F0EDBCFAD
:10031000E6FF100EDBCFE6FFF6EC0AF0E552E55201
:10032000E552130E07C0DBFF140E08C0DBFF060EFC
:10033000DB5005E0130EC9EC05F001E26ADBEDECE1
:1003400005F002E2130E37DBB0EC05F006E0040E18
:10035000C9EC05F002E2050E2EDB030EDBB005D082
:10036000FCDA01E0D7D2080EDB6A090EDB6A0E0E5A
:10037000DBCFF6FF0F0EDBCFF7FF100EDBCFF8FF62
:100380000800F550DF6EDF5014E0F3EC05F011E2E9
:1003900002EC06F003E1151C01E1BCD2BBDB01E37A
:1003A000DB2A090EDB2AD9500E0FE96E000ECBDBDB
:1003B000E7D7D3DA01E1B4D2ADD2C6DA110EEECF6F
:1003C000DBFF120EEDCFDBFF110EDBCFE6FF120ECF
:1003D000DBCFE6FFE8EC0AF0E552E552130EF3CF6F
:1003E000DBFF140EF4CFDBFF060EDB5004E0130E30
:1003F000D0DB01E20EDBEDEC05F002E2130EDBDAFE
:10040000AFDB05E0040EC5DB02E2050ED4DA030E15
:10041000DBB005D0A2DA01E07DD2080EDB6A090E5E
:10042000DB6A110EDBCFE9FF120EDBCFEAFFEFCF65
:10043000DFFFDF5014E0D7DB12E2E4DB03E1151C41
:1004400001E168D267DB01E3DB2A090EDB2A110E2A
:10045000DB2ADBCFE9FF120EE8E3DB2AE6D77DDA01
:1004600001E15ED257D2030EDB8E070EDB0410E1F2
:1004700095DB040E5ADB0A0EEECFDBFF0B0EEECF40
:10048000DBFF0C0EEECFDBFF0D0EEECFDBFF6CD0F3
:10049000070EDB5003082CE1030EDBAE0DD0B2DA01
:1004A000020E76DAEFCF14F0156A166A176A14AEE8
:1004B00039D01568166835D0F70EDBCF15F0F80E79
:1004C000DBCF16F0020E155E000E165AF70E15C0A1
:1004D000DBFFF80E16C0DBFF15C0E9FF16C0EAFF10
:1004E000EFCF14F00A0E14C0DBFF0B0EDB6A38D01E
:1004F000070EDB50020809E1030EDBAE04D059DB26
:1005000016AE10D00ED055DB0DD0030EDBAE12D0E0
:1005100079DA020E3DDAF9DA166A176A15AE02D0F8
:1005200016681768E2DA0C0E16C0DBFF0D0E17C056
:10053000DBFF1AD0F70EDBCF16F0F80EDBCF17F08B
:10054000020E165E000E175AF70E16C0DBFFF80EED
:1005500017C0DBFF16C0E9FF17C0EAFFD6DAC5DA1D
:100560000C0EDB6A0D0EDB6A060EDB5005E1010E98
:10057000F36E050EF3CFDBFF150EDB6A160EDB6A9A
:10058000D950370F146E000EDA20156E390E14C0D4
:10059000DBFF3A0E15C0DBFF380EDB6A080EDB6AA4
:1005A0000A0EAEDADF50780A12E0200A10E0280ABC
:1005B0000CE0200A0AE03F0A06E00D0A02E0200AE9
:1005C00008E1020E05D0080E03D0080EDF26100E3B
:1005D00097DA030EDBBE02D0DB92DB94DB50800B9C
:1005E00024E08ADAD890030EEB50000A08E6000EE9
:1005F000EE5C000EEE58000EEE58000EEE5815E2BE
:1006000013DA0B680C680D680E68B0EC0AF00A0E7D
:1006100002C0DBFF0B0E03C0DBFF0C0E04C0DBFFD0
:100620000D0E05C0DBFF2D0E08D0030EDBA202D09D
:100630002B0E03D0DBA408D0200EF36E170EF3CFE1
:10064000DBFF150EDB2A02D0170EDB6A050EDB502E
:1006500003E1B7D901E189D0490E146E180E156E69
:10066000000E166E070EDBCF17F0186A196A1A6AA9
:1006700017C00BF018C00CF019C00DF01AC00EF026
:10068000D3D97AEC0BF014500224F36E15500320EA
:10069000F46E16500420F86EF4CFF7FFF3CFF6FF98
:1006A0000800090EF5CFDBFF580EDF5C0FE1610E8D
:1006B000F36E090E7BD90AE3200E146E090EDBCF10
:1006C000E7FF1450E75E090EE7CFDBFF070EDBCF35
:1006D00014F0156A166A176A0FDA14C00BF015C009
:1006E0000CF016C00DF017C00EF0EECF06F0EECFF6
:1006F00007F0EECF08F0EFCF09F07AEC0BF009C06D
:10070000EDFF08C0EDFF07C0EDFF06C0EFFF390E9B
:10071000DBCFE9FFDB063A0EDBCFEAFF01E2DB06C7
:10072000090EDBCFEFFF150EDB2A4BD995E1030E47
:10073000DBA61DD06F0EDF5C06E1C1D918E3150EF4
:10074000DB285BDA14D0780EDF5C09E0580EDF5C42
:1007500006E0620EDF5C03E0420EDF5C08E1020EA1
:10076000F36E160EF3CFDBFF02D0150EDB6A030E1D
:10077000DB50100B0EE0040EDBCF14F0050EDB5047
:10078000D880145406E2060EDB5003E1040EDB5061
:1007900034DA95D90AE2050EDBCFE7FF150EDB5000
:1007A000E75E050EE7CFDBFF02D0050EDB6A040E25
:1007B000DBCF14F0160E45D9D880145414E2160E6F
:1007C000DBCFE6FF150EDBCFE6FF040EDBCFE6FF47
:1007D000050EDB50E552E75CE552D880E754E55260
:1007E000D880E7545FD9030EDB50010B0BE1080EF4
:1007F000DB5008E0B2D801E08DD0080EDB50BED847
:10080000080EDB6A170EDB5007E088D9170EF1D906
:1008100003E1151C01E17ED0160EDB5016E07ED9F7
:10082000300EE66E9FD802E1151C74E077D9DFCF59
:10083000E6FF6EEC0AF0E552E552E552F4CF15F012
:100840000001F31C02E1151C65E0050EDBCF14F07E
:10085000160EDB50D880145409E2050EDBCFE7FFFB
:10086000160EDB50E75E050EE7CFDBFF300EE66EBF
:10087000050ECBD94FE1390EDB2ADBCFE9FF3A0E6B
:1008800001E3DB2ADBCFEAFF090EEFCFDBFFDB5012
:100890000EE044D9090EADD902E1151C3BE0390E3A
:1008A000DB2ADBCFE9FF3A0EEDE3DB2AEBD755D8A5
:1008B00031E1160EDBCFE6FF080EC3D8E552E72480
:1008C0005DD82ED0070EDB50030A1CE0010A14E0AD
:1008D000030A07E07BD9DBCFEEFF020EDBCFEDFF93
:1008E0001FD0F5D8196A17AE02D0186819682CD82D
:1008F000BCD819C0EEFF14D0EAD817BE186824D8A7
:10090000B4D80ED063D9DBCFEFFF0AD07BD905E195
:10091000151C03E1F368F46810D0FCD801E3DB2A6E
:1009200079D92FEF00F0010EDBCF14F0020EDBCFF0
:1009300015F014C0F3FF15C0F4FF3B0EE15C02E2BA
:10094000E16AE552E16ECBD029D9020E95EF05F0B0
:1009500061D90800F550DF6E1200200EE66E080E19
:1009600005EF06F06EEC0AF0E552E552E552F3CFE2
:1009700014F0F4CF15F00001F31C1200146E156A88
:10098000D950010F4DD91450EE261550ED2212000A
:10099000185E000E195AF70E18C0DBFFF80E19C0CA
:1009A000DBFF18C0E9FF19C0EAFF1200DBCFF4FF3C
:1009B000F350F45C1200DB50E76E040EE7CFDBFF70
:1009C00012000A0EDBCF14F00B0EDBCF15F00C0E6D
:1009D000DBCF16F00D0EDBCF17F0145015101610EC
:1009E00017101200130EEECFDBFF140EEDCFDBFF5E
:1009F000130EDBCF14F0140EDBCF15F00001800EC8
:100A000015141200F70EDBCF18F0F80EDBCF19F03B
:100A10001200050EDB50E66ED950130F01D9E552D6
:100A2000E750EE6EED6A12000A0EDBCF06F00B0EF9
:100A3000DBCF07F00C0EDBCF08F00D0EDBCF09F09B
:100A40001200DBCFE6FF150EDBCFE6FF050EDB5015
:100A5000E552E724E552E7241200DB50CED8010E20
:100A6000F36E060EF3CFDBFF1200EE50EFCFEAFF7E
:100A7000E96E16C0EEFF17C0EEFF18C0EEFF1200C1
:100A8000D9CFE6FFDACFE6FFE1CFD9FFE2CFDAFF39
:100A90001200DFCFE6FFE66AD3EC0BF0E552E55239
:100AA000F3501200E76E080EE7CFDBFF1200EECF27
:100AB00014F0EECF15F0EFCF16F0176A1200050E06
:100AC000DBCF14F0150EDB50D88014541200010E49
:100AD000DBCF16F0020EDBCF17F0186A1200E552DA
:100AE000E5CFDAFFE7CFD9FF12000A0E14C0DBFF13
:100AF0000B0E15C0DBFF1200D9500A0F10EF06F0E5
:100B0000F36E070EF3CFDBFF1200EECF14F0EFCF42
:100B100015F01200010EDB2A020E1200FC0EDBCFD4
:100B2000E6FFFD0EDBCFE6FF1200145E000E155A45
:100B3000F70E14C0DBFFF80E15C0DBFF14C0E9FF91
:100B400015C0EAFF1200DA20EA6EEF2AEECFF6FFB8
:100B5000000EEF22EECFF7FFEF22EECFF8FF1200EC
:100B6000040EDBCFE6FF130EDB50E552E75C9ADFA5
:100B7000DB5004DF060EDB501200090EDB500A0DBD
:100B8000F350DF24D00FE76E090EE7CFDBFFA8EFAD
:100B900004F0DB50F36E050ED6EF04F0F70EDBCF5A
:100BA00014F0F80EDBCF15F01200DFCFE6FFB2EF46
:100BB00004F028DF030EECDE57EF05F004EC00F044
:100BC000E552E552E552E55200091200BDDEEE5055
:100BD000EFCFEAFFE96E010E1200130EDB50F36E49
:100BE000040ED6EF04F0040EDB50F36E090ED6EFC0
:100BF00004F0DBCFE6FFB2EF04F0E76E050EE7CFBF
:100C0000DBFF12008BDFD5EF05F0DBCFE6FF86DFE1
:100C1000DEEF05F0D950F90FE96EFF0EA3EF05F0F6
:0A0C2000E96E000EDA20EA6E120001
:060C2A00D9CFE6FFE1CF87
:100C3000D9FF1AD0FD0EDBCF14F0FE0EDBCF15F07E
:100C4000153404E214500008000E15540DE2010E94
:100C5000E66E11EC0CF0E55200000000FD0EDB0624
:100C6000FE0E01E2DB06E6D718D0FD0EDBCF14F056
:100C7000FE0EDBCF15F0153404E214500008000E10
:100C800015540BE2010EE66E11EC0CF0E552FD0E70
:100C9000DB06FE0E01E2DB06E8D718D0FD0EDBCF47
:100CA00014F0FE0EDBCF15F0153404E214500008EA
:100CB000000E15540BE200000000000000000000D0
:100CC000FD0EDB06FE0E01E2DB06E8D717D0FD0EB7
:100CD000DBCF14F0FE0EDBCF15F0153404E2145018
:100CE0000008000E15540AE2000000000000000099
:100CF000FD0EDB06FE0E01E2DB06E9D716D0FD0E87
:100D0000DBCF14F0FE0EDBCF15F0153404E21450E7
:100D10000008000E155409E2000000000000FD0E5E
:100D2000DB06FE0E01E2DB06EAD7FD0EDBCF14F098
:100D3000FE0EDBCF15F0153404E214500008000E4F
:100D4000155408E200000000FD0EDB06FE0E01E275
:100D5000DB06EBD7E552E7CFD9FF1200D9CFE6FF8C
:100D6000E1CFD9FFFD0EDB50E8B08384E8A0839487
:100D7000FE0EDB44010BE8B0838EE8A0839E060ED6
:100D8000146EFE0EDB5014C0E7FFE75204E0E842A9
:100D90007F0BE706FCE1E8B0838CE8A0839CFE0EA5
:100DA000DB50E00BE838E840E8B0838AE8A0839A9B
:100DB000FE0EDB380F0BE8B08388E8A083988386AB
:100DC000020EE66EE66A31DFE552E5528396FE0ECC
:100DD000DB40E840E8401F0BE8B0838EE8A0839E2C
:100DE000FE0EDB40E8403F0BE8B0838CE8A0839C1C
:100DF000FE0EDB407F0BE8B0838AE8A0839AFE0EEC
:100E0000DB50E8B08388E8A083988386020EE66E04
:100E1000E66A0BDFE552E5528396FB0EDBCFE6FF79
:100E2000FC0EDBCFE6FF01DFE552E552E552E7CFEE
:100E3000D9FF1200D00EE66E070EE66EE66A020ECD
:100E4000E66E8CDFE552E552E552E5521200D00E17
:100E5000E66E070EE66EE66A010EE66E7FDFE5528D
:100E6000E552E552E5521200D9CFE6FFE1CFD9FFB6
:100E7000020EE126140EDF6EDE52100EDD6E280E1D
:100E8000E66EE66AE66AD9CF14F0DACF15F0FE0E08
:100E9000DBCF16F0176A16BE176814501624E96ED9
:100EA00015501720EA6EEF50E66E58DFE552E55216
:100EB000E552E552020EE15C02E2E16AE552E16EC2
:100EC000E552E7CFD9FF1200D9CFE6FFE1CFD9FF36
:100ED000020EE1261C0EDF6EDE52180EDD6E280EAD
:100EE000E66EE66AE66AD9CF14F0DACF15F0FE0EA8
:100EF000DBCF16F0176A16BE176814501624E96E79
:100F000015501720EA6EEF50E66E28DFE552E552E5
:100F1000E552E552020EE15C02E2E16AE552E16E61
:100F2000E552E7CFD9FF1200D9CFE6FFE1CFD9FFD5
:100F3000050EE1260C0EDF6EDE52080EDD6E0F0E82
:100F4000F36E020EF3CFDBFF0E0EF36E030EF3CF44
:100F5000DBFF0D0EF36E040EF3CFDBFF280EE66E03
:100F6000E66AE66AD9CF14F0DACF15F0FE0EDBCFD1
:100F700016F0176A16BE176814501624E96E15503D
:100F80001720EA6EEF50E66EE9DEE552E552E552D3
:100F9000E552050EE15C02E2E16AE552E16EE552DE
:100FA000E7CFD9FF1200D9CFE6FFE1CFD9FFFE0E80
:100FB000DB040EE1280EE66EE66AE66AFD0EDB5003
:100FC000800FFF0FE66ECADEE552E552E552E552AC
:100FD000FE0EDB5002080EE1280EE66EE66AE66AB7
:100FE000FD0EDB50C00FFF0FE66EB8DEE552E55296
:100FF000E552E552FE0EDB5003080EE1280EE66EC8
:10100000E66AE66AFD0EDB50940FFF0FE66EA6DE81
:10101000E552E552E552E552FE0EDB5004080EE1C2
:10102000280EE66EE66AE66AFD0EDB50D40FFF0F6F
:10103000E66E94DEE552E552E552E552E552E7CF21
:10104000D9FF1200D9CFE6FFE1CFD9FF2D0EE66E12
:10105000E66A010EE66EFE0EDBCFE6FF7FDEE552AE
:10106000E552E552E552E552E7CFD9FF1200D9CF5C
:10107000E6FFE1CFD9FFFD0EDBCFE6FFFE0EDBCFB3
:10108000E6FF91DFE552E552FB0EDBCFF6FFFC0EEB
:10109000DBCFF7FF0800F55011E0FB0EDBCFF6FFCA
:1010A000FC0EDBCFF7FF0800F550E66ECBDFE55214
:1010B000FB0EDB2AFC0E01E3DB2AE6D7E552E7CF85
:1010C000D9FF1200D9CFE6FFE1CFD9FFFD0EDBCF6C
:1010D000E6FFFE0EDBCFE6FF66DFE552E552FA0ED5
:1010E000DBCFF3FFDB06F350000910E0FB0EDBCF94
:1010F000E9FFFC0EDBCFEAFFEF50E66EA3DFE5521F
:10110000FB0EDB2AFC0E01E3DB2AE9D7E552E7CF31
:10111000D9FF1200D9CFE6FFE1CFD9FF070EE126B4
:10112000030EDF6EDE52020EDD6EDB6A030EDB6A3B
:10113000040EDB6A050EDB6A060EDB6A280EF36E10
:10114000020EF3CFDBFF0F0EF36E030EF3CFDBFFC8
:10115000060EF36E040EF3CFDBFF83948396200E0E
:10116000E66E4E0EE66E61DDE552E552060EDBCF11
:1011700014F0030EE76E1418E8AE02D0E73402D084
:10118000E750145C2EE2DF50E840E840E8401F0BD7
:10119000E8B0838EE8A0839EDF50E840E8403F0B34
:1011A000E8B0838CE8A0839CDF407F0BE8B0838AA3
:1011B000E8A0839ADF50E8B08388E8A0839883860C
:1011C000020EE66EE66A31DDE552E5528396880E40
:1011D000E66E130EE66E29DDE552E552060EDB2AB9
:1011E000C5D7010EDB40E840E8401F0BE8B0838E16
:1011F000E8A0839E010EDB40E8403F0BE8B0838C03
:10120000E8A0839C010EDB407F0BE8B0838AE8A056
:10121000839A010EDB50E8B08388E8A08398838628
:10122000020EE66EE66A01DDE552E5528396280E6F
:10123000E66EE66AFADCE552E552280EE66EE66AEC
:10124000E66A020EDBCFE6FF89DDE552E552E552A4
:10125000E552280EE66EE66AE66A030EDBCFE6FF8D
:101260007DDDE552E552E552E552280EE66EE66A6E
:10127000E66A040EDBCFE6FF71DDE552E552E5528A
:10128000E552E5DDE66A50DEE552070EE15C02E27A
:10129000E16AE552E16EE552E7CFD9FF12008F0E09
:1012A000D3147009D36EF00EC1140F09C16EF80E7D
:1012B000B4140709B46E806A816A826A836A846A98
:1012C000926A010E936E946A956A040E966E22DFFE
:1012D000C69AE66AE66AE66A1BEC0BF0E552E5524E
:1012E000E552380E146E180E156E166A14C0E6FF1D
:1012F00015C0E6FF16C0E6FF600EE66E000EE66E55
:10130000C9EC09F0176E050EE15E1750100EE66E7F
:10131000600EE66E000EE66E010EE66EE66ED2DE42
:10132000146E050EE15E145084B42BD08980040E37
:10133000E66E9EEC0BF0E552000901E0F8D7A80E2E
:10134000E66E9EEC0BF0E552000901E0F8D7F30ED3
:10135000E66E9EEC0BF0E552000901E0F8D7D10EE5
:10136000E66E9EEC0BF0E552000901E0F8D7E50EC1
:10137000E66E9EEC0BF0E552000901E0F8D789908B
:1013800006D00A0EE66EBCEC0BF0E5528370CCD7AB
:02139000120049
:0E139200D9CFE6FFDACFE6FFE1CFD9FFE2CFF9
:1013A000DAFFE652E652E652E652D950F90F146ED1
:1013B000FF0EDA20156E020E14C0DBFF030E15C0FF
:1013C000DBFF020EDBCFE6FF030EDBCFE6FFF90EFD
:1013D000DBCFE6FFFA0EDBCFE6FFFB0EDBCFE6FF4F
:1013E000D950FC0FE66EFF0EDA20E66E1AEC00F024
:1013F000146E070EE15C02E2E16AE552E16E145000
:10140000F3CFDEFFF4CFDDFFFC0EDBCFE9FFFD0EF7
:10141000DBCFEAFFEF6ADECF14F0DDCF15F014C0AA
:10142000F3FF15C0F4FF040EE15C02E2E16AE5524D
:0E143000E16EE552E5CFDAFFE7CFD9FF1200FB
:02143E00060E98
:10144000F66E000EF76E000EF86E00010900F55002
:10145000766F0900F550776F03E1766701D03DD0D4
:101460000900F550716F0900F550726F0900F550D1
:10147000736F09000900F550E96E0900F550EA6E36
:10148000090009000900F550746F0900F550756FE7
:1014900009000900F6CF78F0F7CF79F0F8CF7AF0AD
:1014A00071C0F6FF72C0F7FF73C0F8FF00017453FC
:1014B00002E1755307E00900F550EE6E7407F8E29B
:1014C0007507F9D778C0F6FF79C0F7FF7AC0F8FF43
:0C14D00000017607000E775BBFD712000A
:0414DC00D9CFE6FF7F
:1014E000DACFE6FFE1CFD9FFE2CFDAFFFB0EDBCFA9
:1014F00014F0FC0EDBCF15F00001800E15141AE17C
:10150000FB0EDBCFE9FFFC0EDBCFEAFFEECFF3FFF4
:10151000EDCFF4FFEE2A000EEF22F3CFE9FFF4CF78
:10152000EAFFFD0EDBCFEFFFEF50156AF36E15C03B
:10153000F4FF10D0FB0EDB50FE0806E1FD0EDBCF02
:10154000E6FF03EC0CF005D0FD0EDBCFE6FF2DEC43
:101550000CF0E552E552E5CFDAFFE7CFD9FF1200F4
:1015600006500B02F3CF02F0F4CF03F00C02F3505D
:101570000326000EF420046E06500D02F3500426DC
:10158000000EF420056E06500E02F350052607509B
:101590000B02F3500326F4500422000E05220750DC
:1015A0000C02F3500426F450052207500D02F350AC
:1015B000052608500B02F3500426F450052208506B
:1015C0000C02F350052609500B02F35005261200B9
:1015D000FE0EE3CFE9FFFF0EE3CFEAFFF36AF46A02
:1015E000EE5203E0F34AF42AFBD71200FF0EE3CFDA
:1015F000F8FFE552FF0EE3CFF7FFE552FF0EE3CF12
:10160000F6FFE552E66AE66AE66A0900F55209E085
:10161000FD0EE32A05E1FE0EE32A02E1FF0EE32AB6
:10162000F4D7FD0EE3CF07F0FE0EE3CF08F0FF0E78
:06163000E3CF09F01200F7
:0A163600D9CFE6FFDACFE6FFE1CFDF
:10164000D9FFE2CFDAFF3F0EC716C66AFD0EDB50A8
:10165000C612FB0EDB50C712FC0EDB50030A09E07A
:10166000010A04E0020A06E1C78C04D0C78CC688D0
:1016700001D0C688FD0EDB50050A03E0010A03E134
:10168000928A938201D093929380949EC68AE55267
:0A169000E5CFDAFFE7CFD9FF120023
:06169A0009C013F008C0B6
:1016A00012F008500D02F4CF07F0F3CF06F0095006
:1016B0000E02F4CF09F0F3CF08F00D02F350072625
:1016C000F4500822E86A092212500E02F35007264D
:1016D000F4500822E86A09220EAE73EF0BF01250A4
:1016E000085E1350095A13AE000C0D50085E0E50E0
:0416F000095A000C87
:0C16F400056A046A036A026A200EE76EB1
:10170000D8900636073608360936023603360436D0
:1017100005360B50025C0C5003580D5004580E5007
:10172000055809E30B50025E0C50035A0D50045A41
:0C1730000E50055A062AE72EE4D71200DE
:04173C00D9CFE6FF1C
:10174000DACFE6FFE1CFD9FFE2CFDAFFE652C950A8
:10175000DF6E9E96C69EFD0EDB50C96EC6AE02D0F1
:10176000FF0E03D09EA6FED7000EE552E552E5CF50
:08177000DAFFE7CFD9FF1200F8
:08177800FF0EE3501C6EEF0EA2
:1017800001D0F30EE76EE72EC3EF0BF00C0E1B6ECD
:10179000E76AE72EC9EF0BF01B2EC8EF0BF01C2EEB
:0617A000C1EF0BF0120086
:0A17A600F36AF46AFF0EE124E96E15
:1017B000FF0EE220EA6EED6607D02F0EEF6404D034
:0A17C0003A0EEF6001D0F32A120088
:0617CA00000EF36E00EEBC
:1017D00000F0080E01D81200EA6002D0EE6AFCD7D1
:0A17E000F350E9601200EE6AFCD736
:0617EA0013EE00F023EEF7
:1017F00000F0F86A019C1FEC0AF02EEC0CF04FECA4
:0618000009F0FBD7120005
:0A180600FF0EE350ACBA04D0AF6A45
:10181000AB8EAC8A949CACA2FED7AD6EF36EF46A2C
:021820001200B4
:0E182200FF0EE350E84E1200000000D000D090
:0818300000D0E82EFAD71200E7
:0818380020202020426F6D20EA
:09184000646961212036202000BA
:071849003031323334353633
:0A1850003738396162636465660091
:02185A0012007A
:02185C00120078
:020000040030CA
:0100000024DB
:010001008B73
:0100020038C5
:010003001EDE
:010005008179
:010006008178
:00000001FF
