:040000003DEF07F0D9
:1008000020202020426F6D20626F6D212036202035
:10081000000020EE2CF010EE12F0060EDECFE6FF08
:10082000E82EFCD7106E000E116E1050106E280EC0
:10083000146E1050106E0F0E156E1050106E060EC6
:10084000166E1050839483964E0E026E200E016E2B
:1008500079EC05F03CD012C010F0D8901032D8904E
:100860001032D890103210321032835010187F0B93
:100870001018836E12C010F0D8901032D890103239
:10088000103A1046104683501018BF0B1018836E94
:1008900012C010F0D8901032103A10468350101841
:1008A000DF0B1018836E12B002D0839801D08388BA
:1008B0008386000E026E020E016E79EC05F08396BF
:1008C000130E026E880E016E79EC05F0112A020EED
:1008D000116401D001D0BFD700D013C010F0D89060
:1008E0001032D8901032D89010321032103283501B
:1008F00010187F0B1018836E13C010F0D8901032B0
:10090000D8901032103A1046104683501018BF0B82
:100910001018836E13C010F0D8901032103A1046A1
:1009200083501018DF0B1018836E13B002D0839819
:1009300001D083888386000E026E020E016E79EC70
:1009400005F08396000E026E280E016E79EC05F01C
:1009500014C003F0106E000E046E1050000E066EF0
:10096000280E056EFBEC05F015C003F0106E000EAE
:10097000046E1050000E066E280E056EFBEC05F09E
:1009800016C003F0106E000E046E1050000E066EBE
:10099000280E056EFBEC05F08CEC07F0106E000ED7
:1009A000096E10501FEC07F01200D388D38AD38C45
:1009B000C180C182C184C186B480B482B484000E77
:1009C000806E000E816E000E826E000E836E000E31
:1009D000846E000E926E010E936E000E946E000EE9
:1009E000956E040E966E09EC04F0C69A186E000E11
:1009F000016E1850196E000E026E19501A6E000E1C
:100A0000036E1A50C9EC06F0000E026E1B0E016E4A
:100A1000080E046E000E036EFBEC06F0186E010E5D
:100A20000C6E1850196E010E0D6E1950000E0F6EDF
:100A30001B0E0E6E1A6E100E106E1A505AEC07F046
:100A400000D084B401D001D048D0898001D000D03A
:100A5000186E040E016E185074EC07F00009D8A44B
:100A600001D001D0F5D702D001D000D0186EA80E69
:100A7000016E185074EC07F00009D8A401D001D021
:100A8000F5D702D001D000D0186EF30E016E1850C9
:100A900074EC07F00009D8A401D001D0F5D702D03A
:100AA00001D000D0186ED10E016E185074EC07F012
:100AB0000009D8A401D001D0F5D702D001D000D0D0
:100AC000186EE50E016E185074EC07F00009D8A4FA
:100AD00001D001D0F5D78990B4D7186E0A0E016EF7
:100AE0001850A8EC07F08370ACD7ABD7AAD700EFAB
:100AF00000F074D009D0030EE82EFED700F000F00D
:100B000000F00106D8A002060250800A800F010EF4
:100B1000D8B4015CD8B001D001D0EDD75FD05ED0A1
:100B20005DD007D0030EE82EFED700F00106D8A056
:100B300002060250800A800F010ED8B4015CD8B0C2
:100B400001D001D0EFD74AD049D048D009D000F029
:100B500000F000F000F000F00106D8A0020600D07E
:100B60000250800A800F010ED8B4015CD8B001D0C9
:100B700001D0EDD733D032D031D008D000F000F022
:100B800000F000F00106D8A0020600D00250800A52
:100B9000800F010ED8B4015CD8B001D001D0EED7DF
:100BA0001DD01CD01BD007D000F000F000F00106D3
:100BB000D8A0020600D00250800A800F010ED8B4DF
:100BC000015CD8B001D001D0EFD708D007D006D053
:100BD00000F000F00106D8A0020600D00250800A02
:100BE000800F010ED8B4015CD8B001D001D0F0D78D
:100BF00001D000D0120004B002D0839401D08384CD
:100C0000076A03AE01D0072A07320732835007185C
:100C10007F0B0718836E03C007F0060E086ED8908E
:100C20000732082EFCD7073A0746074683500718B5
:100C3000BF0B0718836E03C007F0050E086ED8902F
:100C40000732082EFCD7073A074683500718DF0BF8
:100C50000718836E03C007F0073A0F0E0716073A0E
:100C600083500718EF0B0718836E8386000E026E01
:100C7000020E016E79EC05F0839603C007F0D89060
:100C80000732D8900732D8900732073207328350A4
:100C900007187F0B0718836E03C007F0D890073240
:100CA000D8900732073A0746074683500718BF0B0C
:100CB0000718836E03C007F0D8900732073A07463B
:100CC00083500718DF0B0718836E03B002D0839898
:100CD00001D083888386000E026E020E016E79ECCD
:100CE00005F0839605C001F006C002F079EC05F02E
:100CF00012000904D8A401D001D00ED00A507F0FF1
:100D0000036E0B6E000E046E0B50000E066E280E66
:100D1000056EFBEC05F000D00950020AD8A401D002
:100D200001D00ED00A50BF0F036E0B6E000E046E82
:100D30000B50000E066E280E056EFBEC05F000D081
:100D40000950030AD8A401D001D00ED00A50930F45
:100D5000036E0B6E000E046E0B50000E066E280E16
:100D6000056EFBEC05F000D00950040AD8A401D0B0
:100D700001D00ED00A50D30F036E0B6E000E046E1E
:100D80000B50000E066E280E056EFBEC05F000D031
:100D900012003F0EC716000EC66E0150C612035059
:100DA000C71209D0C78C1BD0C78CC68818D0C6887C
:100DB00016D015D014D00250000AD8B4F3D7020AC6
:100DC000D8B4F2D7010AD8B4F2D709D008D0928AA1
:100DD00093820DD093820BD0939209D008D001500A
:100DE000040AD8B4F4D7010AD8B4F4D7F5D793805D
:100DF000949EC68A1200000E066E050E056E09D07E
:100E000001C0D9FF02C0DAFF07C0DFFF014A022A92
:100E100000D003C0F6FF04C0F7FF034A042A08000D
:100E2000F5CF07F0076601D001D0EAD700D001C0A6
:100E3000D9FF02C0DAFF000EDF6E00D0120020EEF4
:100E400032F010EE0BF0050EDECFE6FFE82EFCD7F9
:100E50000950010D0B0EF324D96E000EF420DA6E4A
:100E6000DF50036E0A6E000E046E0A50000E066E0E
:100E7000280E056EFBEC05F0120000EE1BF0110EC3
:100E8000EE6AE806FDE1680EF66E0F0EF76E000ED4
:100E9000F86E00EE2CF010EE0FF00900F5CFEEFF2B
:100EA000E550E150FAE1000EF86E080EF76E000111
:100EB000D5EF04F00CC009F00DC00AF079EC06F093
:100EC0000BD00EC0D9FF0FC0DAFFDF50096E9BECCC
:100ED00007F00E4A0F2A00D010061028D8A401D01F
:100EE00001D0EFD700D01200C9CF02F09E96C69E67
:100EF00001C0C9FFC6AE01D001D005D0FF0E0BD096
:100F00000AD007D000D09EA601D001D0FCD701D0D6
:100F100000D0000E00D01200096E010E036E0950C1
:100F20000A6E000E046E0A50070E066ED00E056E95
:100F3000FBEC05F0120009C003F00A6E010E046E0E
:100F40000A50000E066E2D0E056EFBEC05F0120029
:100F50000D0E026EFB0EE82EFED7022EFCD700D03F
:100F6000012EF6D700D012000302000000000C088A
:080F70000F0E0D14101C1800F7
:020000040020DA
:08000000FFFFFFFFFFFFFFFF00
:020000040030CA
:0E000000248B381EFF8181FF0FC00FE00F40E0
:00000001FF
